{
  "fileName": "UserDB.sol",
  "contractName": "UserDB",
  "source": "pragma solidity ^0.5.0;\n\ncontract UserDB {\n\n    mapping(address => bool) public users;\n\n    function addUser(address _user) public {\n        users[_user] = true;\n    }\n\n    function deleteUser(address _user) public {\n        users[_user] = false;\n    }\n}",
  "sourcePath": "contracts/UserDB.sol",
  "abi": [
    {
      "constant": false,
      "inputs": [
        {
          "internalType": "address",
          "name": "_user",
          "type": "address"
        }
      ],
      "name": "addUser",
      "outputs": [],
      "payable": false,
      "stateMutability": "nonpayable",
      "type": "function"
    },
    {
      "constant": false,
      "inputs": [
        {
          "internalType": "address",
          "name": "_user",
          "type": "address"
        }
      ],
      "name": "deleteUser",
      "outputs": [],
      "payable": false,
      "stateMutability": "nonpayable",
      "type": "function"
    },
    {
      "constant": true,
      "inputs": [
        {
          "internalType": "address",
          "name": "",
          "type": "address"
        }
      ],
      "name": "users",
      "outputs": [
        {
          "internalType": "bool",
          "name": "",
          "type": "bool"
        }
      ],
      "payable": false,
      "stateMutability": "view",
      "type": "function"
    }
  ],
  "bytecode": "0x60806040523480156100115760006000fd5b50610017565b61024b806100266000396000f3fe60806040523480156100115760006000fd5b50600436106100465760003560e01c8063421b2d8b1461004c5780635c60f22614610091578063a87430ba146100d657610046565b60006000fd5b61008f600480360360208110156100635760006000fd5b81019080803573ffffffffffffffffffffffffffffffffffffffff169060200190929190505050610133565b005b6100d4600480360360208110156100a85760006000fd5b81019080803573ffffffffffffffffffffffffffffffffffffffff169060200190929190505050610192565b005b610119600480360360208110156100ed5760006000fd5b81019080803573ffffffffffffffffffffffffffffffffffffffff1690602001909291905050506101f1565b604051808215151515815260200191505060405180910390f35b6001600060005060008373ffffffffffffffffffffffffffffffffffffffff1673ffffffffffffffffffffffffffffffffffffffff16815260200190815260200160002060006101000a81548160ff0219169083151502179055505b50565b6000600060005060008373ffffffffffffffffffffffffffffffffffffffff1673ffffffffffffffffffffffffffffffffffffffff16815260200190815260200160002060006101000a81548160ff0219169083151502179055505b50565b600060005060205280600052604060002060009150909054906101000a900460ff168156fea265627a7a72315820b9ba4e9e5098e601f2bcd0acd9885dfd986235683097180da505a0697bb3749764736f6c634300050b0032",
  "compiler": {
    "name": "solc",
    "version": "0.5.11+commit.c082d0b4.Emscripten.clang",
    "optimizer": {},
    "evmVersion": "constantinople"
  }
}